{
  "contractName": "TokenLoyalty",
  "abi": [
    {
      "constant": true,
      "inputs": [
        {
          "name": "",
          "type": "address"
        }
      ],
      "name": "connectors",
      "outputs": [
        {
          "name": "",
          "type": "address"
        }
      ],
      "payable": false,
      "stateMutability": "view",
      "type": "function"
    },
    {
      "constant": true,
      "inputs": [],
      "name": "pool",
      "outputs": [
        {
          "name": "",
          "type": "address"
        }
      ],
      "payable": false,
      "stateMutability": "view",
      "type": "function"
    },
    {
      "constant": false,
      "inputs": [
        {
          "name": "_receiver",
          "type": "address"
        }
      ],
      "name": "setReceiver",
      "outputs": [],
      "payable": false,
      "stateMutability": "nonpayable",
      "type": "function"
    },
    {
      "constant": false,
      "inputs": [],
      "name": "acceptOwnership",
      "outputs": [],
      "payable": false,
      "stateMutability": "nonpayable",
      "type": "function"
    },
    {
      "constant": true,
      "inputs": [],
      "name": "owner",
      "outputs": [
        {
          "name": "",
          "type": "address"
        }
      ],
      "payable": false,
      "stateMutability": "view",
      "type": "function"
    },
    {
      "constant": true,
      "inputs": [],
      "name": "subPoolId",
      "outputs": [
        {
          "name": "",
          "type": "uint256"
        }
      ],
      "payable": false,
      "stateMutability": "view",
      "type": "function"
    },
    {
      "constant": false,
      "inputs": [
        {
          "name": "_sender",
          "type": "address"
        }
      ],
      "name": "setSender",
      "outputs": [],
      "payable": false,
      "stateMutability": "nonpayable",
      "type": "function"
    },
    {
      "constant": true,
      "inputs": [],
      "name": "newOwner",
      "outputs": [
        {
          "name": "",
          "type": "address"
        }
      ],
      "payable": false,
      "stateMutability": "view",
      "type": "function"
    },
    {
      "constant": false,
      "inputs": [
        {
          "name": "_newOwner",
          "type": "address"
        }
      ],
      "name": "transferOwnership",
      "outputs": [],
      "payable": false,
      "stateMutability": "nonpayable",
      "type": "function"
    },
    {
      "inputs": [
        {
          "name": "_pool",
          "type": "address"
        }
      ],
      "payable": false,
      "stateMutability": "nonpayable",
      "type": "constructor"
    },
    {
      "payable": true,
      "stateMutability": "payable",
      "type": "fallback"
    },
    {
      "anonymous": false,
      "inputs": [
        {
          "indexed": false,
          "name": "member",
          "type": "address"
        },
        {
          "indexed": false,
          "name": "clientId",
          "type": "string"
        },
        {
          "indexed": false,
          "name": "claim",
          "type": "bool"
        },
        {
          "indexed": false,
          "name": "tokenId",
          "type": "uint256"
        },
        {
          "indexed": false,
          "name": "supPoolId",
          "type": "uint256"
        }
      ],
      "name": "Created",
      "type": "event"
    },
    {
      "anonymous": false,
      "inputs": [
        {
          "indexed": false,
          "name": "subPoolId",
          "type": "uint256"
        },
        {
          "indexed": false,
          "name": "timeStamp",
          "type": "uint256"
        },
        {
          "indexed": false,
          "name": "closure",
          "type": "uint256"
        }
      ],
      "name": "SPExtension",
      "type": "event"
    },
    {
      "anonymous": false,
      "inputs": [
        {
          "indexed": false,
          "name": "message",
          "type": "string"
        }
      ],
      "name": "Error",
      "type": "event"
    },
    {
      "anonymous": false,
      "inputs": [
        {
          "indexed": false,
          "name": "subPoolId",
          "type": "uint256"
        },
        {
          "indexed": false,
          "name": "tokenId",
          "type": "uint256"
        },
        {
          "indexed": false,
          "name": "timeStamp",
          "type": "uint256"
        },
        {
          "indexed": false,
          "name": "closure",
          "type": "uint256"
        },
        {
          "indexed": false,
          "name": "members",
          "type": "uint256"
        },
        {
          "indexed": false,
          "name": "activated",
          "type": "uint256"
        },
        {
          "indexed": false,
          "name": "funded",
          "type": "bool"
        }
      ],
      "name": "Added",
      "type": "event"
    },
    {
      "anonymous": false,
      "inputs": [
        {
          "indexed": false,
          "name": "subPoolId",
          "type": "uint256"
        },
        {
          "indexed": false,
          "name": "tokenId",
          "type": "uint256"
        },
        {
          "indexed": false,
          "name": "timeStamp",
          "type": "uint256"
        },
        {
          "indexed": false,
          "name": "closure",
          "type": "uint256"
        }
      ],
      "name": "Activated",
      "type": "event"
    },
    {
      "anonymous": false,
      "inputs": [
        {
          "indexed": false,
          "name": "subPoolId",
          "type": "uint256"
        },
        {
          "indexed": false,
          "name": "payment",
          "type": "uint256"
        },
        {
          "indexed": false,
          "name": "debit",
          "type": "uint256"
        },
        {
          "indexed": false,
          "name": "timeStamp",
          "type": "uint256"
        },
        {
          "indexed": false,
          "name": "closure",
          "type": "uint256"
        }
      ],
      "name": "Funded",
      "type": "event"
    },
    {
      "anonymous": false,
      "inputs": [
        {
          "indexed": false,
          "name": "subPoolId",
          "type": "uint256"
        },
        {
          "indexed": false,
          "name": "timeStamp",
          "type": "uint256"
        },
        {
          "indexed": false,
          "name": "closure",
          "type": "uint256"
        }
      ],
      "name": "Closed",
      "type": "event"
    },
    {
      "anonymous": false,
      "inputs": [
        {
          "indexed": false,
          "name": "subPoolId",
          "type": "uint256"
        },
        {
          "indexed": false,
          "name": "tokenId",
          "type": "uint256"
        },
        {
          "indexed": false,
          "name": "value",
          "type": "uint256"
        },
        {
          "indexed": false,
          "name": "debit",
          "type": "uint256"
        },
        {
          "indexed": false,
          "name": "payment",
          "type": "uint256"
        },
        {
          "indexed": false,
          "name": "timeStamp",
          "type": "uint256"
        },
        {
          "indexed": false,
          "name": "closure",
          "type": "uint256"
        }
      ],
      "name": "Paid",
      "type": "event"
    },
    {
      "anonymous": false,
      "inputs": [
        {
          "indexed": true,
          "name": "_prevOwner",
          "type": "address"
        },
        {
          "indexed": true,
          "name": "_newOwner",
          "type": "address"
        }
      ],
      "name": "OwnerUpdate",
      "type": "event"
    },
    {
      "anonymous": false,
      "inputs": [
        {
          "indexed": false,
          "name": "_sender",
          "type": "address"
        },
        {
          "indexed": false,
          "name": "_receiver",
          "type": "address"
        }
      ],
      "name": "ReceiverUpdate",
      "type": "event"
    },
    {
      "anonymous": false,
      "inputs": [
        {
          "indexed": false,
          "name": "_sender",
          "type": "address"
        },
        {
          "indexed": false,
          "name": "_receiver",
          "type": "address"
        }
      ],
      "name": "SenderUpdate",
      "type": "event"
    },
    {
      "constant": false,
      "inputs": [
        {
          "name": "_member",
          "type": "address"
        },
        {
          "name": "_clientId",
          "type": "string"
        }
      ],
      "name": "create",
      "outputs": [],
      "payable": false,
      "stateMutability": "nonpayable",
      "type": "function"
    },
    {
      "constant": false,
      "inputs": [
        {
          "name": "_id",
          "type": "uint256"
        }
      ],
      "name": "activate",
      "outputs": [],
      "payable": false,
      "stateMutability": "nonpayable",
      "type": "function"
    },
    {
      "constant": false,
      "inputs": [
        {
          "name": "_subPoolId",
          "type": "uint256"
        },
        {
          "name": "_payment",
          "type": "uint256"
        },
        {
          "name": "_debit",
          "type": "uint256"
        }
      ],
      "name": "fund",
      "outputs": [],
      "payable": true,
      "stateMutability": "payable",
      "type": "function"
    },
    {
      "constant": false,
      "inputs": [
        {
          "name": "_subPoolId",
          "type": "uint256"
        }
      ],
      "name": "close",
      "outputs": [],
      "payable": false,
      "stateMutability": "nonpayable",
      "type": "function"
    },
    {
      "constant": false,
      "inputs": [
        {
          "name": "_id",
          "type": "uint256"
        }
      ],
      "name": "payment",
      "outputs": [],
      "payable": false,
      "stateMutability": "nonpayable",
      "type": "function"
    },
    {
      "constant": true,
      "inputs": [
        {
          "name": "_subPoolId",
          "type": "uint256"
        }
      ],
      "name": "getSubPoolExtension",
      "outputs": [
        {
          "name": "",
          "type": "uint256"
        },
        {
          "name": "",
          "type": "uint256"
        },
        {
          "name": "",
          "type": "uint256"
        },
        {
          "name": "",
          "type": "uint256"
        },
        {
          "name": "",
          "type": "uint256"
        },
        {
          "name": "",
          "type": "uint256"
        },
        {
          "name": "",
          "type": "uint256"
        }
      ],
      "payable": false,
      "stateMutability": "view",
      "type": "function"
    },
    {
      "constant": true,
      "inputs": [],
      "name": "getCurrentSubPoolExtension",
      "outputs": [
        {
          "name": "created",
          "type": "uint256"
        },
        {
          "name": "closed",
          "type": "uint256"
        },
        {
          "name": "numberOfMembers",
          "type": "uint256"
        },
        {
          "name": "numberOfActivated",
          "type": "uint256"
        },
        {
          "name": "debitValue",
          "type": "uint256"
        },
        {
          "name": "paymentAmount",
          "type": "uint256"
        },
        {
          "name": "value",
          "type": "uint256"
        }
      ],
      "payable": false,
      "stateMutability": "view",
      "type": "function"
    },
    {
      "constant": true,
      "inputs": [],
      "name": "getBizProcessId",
      "outputs": [
        {
          "name": "contractOwner",
          "type": "address"
        },
        {
          "name": "bizProcessId",
          "type": "uint8"
        }
      ],
      "payable": false,
      "stateMutability": "view",
      "type": "function"
    },
    {
      "constant": true,
      "inputs": [],
      "name": "getBalance",
      "outputs": [
        {
          "name": "",
          "type": "uint256"
        }
      ],
      "payable": false,
      "stateMutability": "view",
      "type": "function"
    },
    {
      "constant": true,
      "inputs": [
        {
          "name": "_id",
          "type": "uint256"
        }
      ],
      "name": "checkPayment",
      "outputs": [
        {
          "name": "",
          "type": "uint256"
        }
      ],
      "payable": false,
      "stateMutability": "view",
      "type": "function"
    }
  ],
  "bytecode": "0x608060405234801561001057600080fd5b5060405160208062002dbd83398101806040528101908080519060200190929190505050336000806101000a81548173ffffffffffffffffffffffffffffffffffffffff021916908373ffffffffffffffffffffffffffffffffffffffff16021790555060036005819055506100966005546100dd640100000000026401000000009004565b80600360006101000a81548173ffffffffffffffffffffffffffffffffffffffff021916908373ffffffffffffffffffffffffffffffffffffffff16021790555050610205565b60e06040519081016040528042815260200162015180420181526020016000815260200160008152602001600015158152602001600081526020016000815250600460008381526020019081526020016000206000820151816000015560208201518160010155604082015181600201556060820151816003015560808201518160040160006101000a81548160ff02191690831515021790555060a0820151816005015560c082015181600601559050507fd9e195d9caaadd0c4217368160d0bfeb60389f0df2be0154e480baff688bcdaf816004600084815260200190815260200160002060000154600460008581526020019081526020016000206001015460405180848152602001838152602001828152602001935050505060405180910390a150565b612ba880620002156000396000f300608060405260043610610107576000357c0100000000000000000000000000000000000000000000000000000000900463ffffffff1680630aebeb4e146101095780630dbf0021146101365780630e53aae91461019a578063111d7d501461021d57806312065fe01461025157806316f0115b1461027c578063718da7ee146102d35780637311a6a71461031657806379ba50971461036b5780638b3c99e3146103825780638da5cb5b146103af578063a15ab08d14610406578063a462741b1461048f578063b260c42a146104ba578063cbf3ff67146104e7578063ced32b0c14610528578063d4ee1d901461056b578063d95548a0146105c2578063f2fde38b1461062d575b005b34801561011557600080fd5b5061013460048036038101908080359060200190929190505050610670565b005b34801561014257600080fd5b5061014b610789565b604051808373ffffffffffffffffffffffffffffffffffffffff1673ffffffffffffffffffffffffffffffffffffffff1681526020018260ff1660ff1681526020019250505060405180910390f35b3480156101a657600080fd5b506101db600480360381019080803573ffffffffffffffffffffffffffffffffffffffff16906020019092919050505061088b565b604051808273ffffffffffffffffffffffffffffffffffffffff1673ffffffffffffffffffffffffffffffffffffffff16815260200191505060405180910390f35b61024f6004803603810190808035906020019092919080359060200190929190803590602001909291905050506108be565b005b34801561025d57600080fd5b50610266610b72565b6040518082815260200191505060405180910390f35b34801561028857600080fd5b50610291610b91565b604051808273ffffffffffffffffffffffffffffffffffffffff1673ffffffffffffffffffffffffffffffffffffffff16815260200191505060405180910390f35b3480156102df57600080fd5b50610314600480360381019080803573ffffffffffffffffffffffffffffffffffffffff169060200190929190505050610bb7565b005b34801561032257600080fd5b5061032b610d27565b6040518088815260200187815260200186815260200185815260200184815260200183815260200182815260200197505050505050505060405180910390f35b34801561037757600080fd5b50610380610d54565b005b34801561038e57600080fd5b506103ad60048036038101908080359060200190929190505050610ef3565b005b3480156103bb57600080fd5b506103c46115ee565b604051808273ffffffffffffffffffffffffffffffffffffffff1673ffffffffffffffffffffffffffffffffffffffff16815260200191505060405180910390f35b34801561041257600080fd5b5061048d600480360381019080803573ffffffffffffffffffffffffffffffffffffffff169060200190929190803590602001908201803590602001908080601f0160208091040260200160405190810160405280939291908181526020018383808284378201915050505050509192919290505050611613565b005b34801561049b57600080fd5b506104a4611ef5565b6040518082815260200191505060405180910390f35b3480156104c657600080fd5b506104e560048036038101908080359060200190929190505050611efb565b005b3480156104f357600080fd5b50610512600480360381019080803590602001909291905050506121cf565b6040518082815260200191505060405180910390f35b34801561053457600080fd5b50610569600480360381019080803573ffffffffffffffffffffffffffffffffffffffff16906020019092919050505061264c565b005b34801561057757600080fd5b506105806127bc565b604051808273ffffffffffffffffffffffffffffffffffffffff1673ffffffffffffffffffffffffffffffffffffffff16815260200191505060405180910390f35b3480156105ce57600080fd5b506105ed600480360381019080803590602001909291905050506127e2565b6040518088815260200187815260200186815260200185815260200184815260200183815260200182815260200197505050505050505060405180910390f35b34801561063957600080fd5b5061066e600480360381019080803573ffffffffffffffffffffffffffffffffffffffff16906020019092919050505061295c565b005b6000809054906101000a900473ffffffffffffffffffffffffffffffffffffffff1673ffffffffffffffffffffffffffffffffffffffff163373ffffffffffffffffffffffffffffffffffffffff161415156106c857fe5b600081141515156106d857600080fd5b426004600083815260200190815260200160002060010154101515610713574260046000838152602001908152602001600020600101819055505b7f95b630824ad6e94ddef40548c81e9ea6d2359c3c61fc11f37e1633bb7b1e3e25816004600084815260200190815260200160002060000154600460008581526020019081526020016000206001015460405180848152602001838152602001828152602001935050505060405180910390a150565b6000806000809054906101000a900473ffffffffffffffffffffffffffffffffffffffff169150601590506000600360009054906101000a900473ffffffffffffffffffffffffffffffffffffffff1673ffffffffffffffffffffffffffffffffffffffff166323845e4b6040518163ffffffff167c0100000000000000000000000000000000000000000000000000000000028152600401602060405180830381600087803b15801561083c57600080fd5b505af1158015610850573d6000803e3d6000fd5b505050506040513d602081101561086657600080fd5b810190808051906020019092919050505014156108865760649050610887565b5b9091565b60026020528060005260406000206000915054906101000a900473ffffffffffffffffffffffffffffffffffffffff1681565b6000806000809054906101000a900473ffffffffffffffffffffffffffffffffffffffff1673ffffffffffffffffffffffffffffffffffffffff163373ffffffffffffffffffffffffffffffffffffffff1614151561091957fe5b6000851415151561092957600080fd5b349150600360009054906101000a900473ffffffffffffffffffffffffffffffffffffffff1673ffffffffffffffffffffffffffffffffffffffff16630ff4c916866040518263ffffffff167c010000000000000000000000000000000000000000000000000000000002815260040180828152602001915050602060405180830381600087803b1580156109bd57600080fd5b505af11580156109d1573d6000803e3d6000fd5b505050506040513d60208110156109e757600080fd5b81019080805190602001909291905050509050836004600087815260200190815260200160002060030154028210151515610a2157600080fd5b826004600087815260200190815260200160002060030154028110151515610a4857600080fd5b60016004600087815260200190815260200160002060040160006101000a81548160ff021916908315150217905550836004600087815260200190815260200160002060050181905550826004600087815260200190815260200160002060060181905550426004600087815260200190815260200160002060010154101515610ae8574260046000878152602001908152602001600020600101819055505b7fb39e3662dcaa568e318c00229a4ec9ef9fb52a69b8b7f95d4ae7881c19c0d5b7858585600460008a815260200190815260200160002060000154600460008b815260200190815260200160002060010154604051808681526020018581526020018481526020018381526020018281526020019550505050505060405180910390a15050505050565b60003073ffffffffffffffffffffffffffffffffffffffff1631905090565b600360009054906101000a900473ffffffffffffffffffffffffffffffffffffffff1681565b6000809054906101000a900473ffffffffffffffffffffffffffffffffffffffff1673ffffffffffffffffffffffffffffffffffffffff163373ffffffffffffffffffffffffffffffffffffffff16141515610c0f57fe5b80600260003073ffffffffffffffffffffffffffffffffffffffff1673ffffffffffffffffffffffffffffffffffffffff16815260200190815260200160002060006101000a81548173ffffffffffffffffffffffffffffffffffffffff021916908373ffffffffffffffffffffffffffffffffffffffff1602179055507f88477ef2e6ee708c15e490fc6b373fe9ca955c32fc8679cd5b820323f20e2b9f3082604051808373ffffffffffffffffffffffffffffffffffffffff1673ffffffffffffffffffffffffffffffffffffffff1681526020018273ffffffffffffffffffffffffffffffffffffffff1673ffffffffffffffffffffffffffffffffffffffff1681526020019250505060405180910390a150565b6000806000806000806000610d3d6005546127e2565b965096509650965096509650965090919293949596565b600160009054906101000a900473ffffffffffffffffffffffffffffffffffffffff1673ffffffffffffffffffffffffffffffffffffffff163373ffffffffffffffffffffffffffffffffffffffff16141515610db057600080fd5b600160009054906101000a900473ffffffffffffffffffffffffffffffffffffffff1673ffffffffffffffffffffffffffffffffffffffff166000809054906101000a900473ffffffffffffffffffffffffffffffffffffffff1673ffffffffffffffffffffffffffffffffffffffff167f343765429aea5a34b3ff6a3785a98a5abb2597aca87bfbb58632c173d585373a60405160405180910390a3600160009054906101000a900473ffffffffffffffffffffffffffffffffffffffff166000806101000a81548173ffffffffffffffffffffffffffffffffffffffff021916908373ffffffffffffffffffffffffffffffffffffffff1602179055506000600160006101000a81548173ffffffffffffffffffffffffffffffffffffffff021916908373ffffffffffffffffffffffffffffffffffffffff160217905550565b60008060008314151515610f0657600080fd5b600360009054906101000a900473ffffffffffffffffffffffffffffffffffffffff1673ffffffffffffffffffffffffffffffffffffffff1663cc933f9d33856040518363ffffffff167c0100000000000000000000000000000000000000000000000000000000028152600401808373ffffffffffffffffffffffffffffffffffffffff1673ffffffffffffffffffffffffffffffffffffffff16815260200182815260200192505050602060405180830381600087803b158015610fcb57600080fd5b505af1158015610fdf573d6000803e3d6000fd5b505050506040513d6020811015610ff557600080fd5b8101908080519060200190929190505050151561101157600080fd5b6103ff600360009054906101000a900473ffffffffffffffffffffffffffffffffffffffff1673ffffffffffffffffffffffffffffffffffffffff166344c9af28856040518263ffffffff167c010000000000000000000000000000000000000000000000000000000002815260040180828152602001915050602060405180830381600087803b1580156110a557600080fd5b505af11580156110b9573d6000803e3d6000fd5b505050506040513d60208110156110cf57600080fd5b81019080805190602001909291905050501415156110ec57600080fd5b600360009054906101000a900473ffffffffffffffffffffffffffffffffffffffff1673ffffffffffffffffffffffffffffffffffffffff166334bda013846040518263ffffffff167c010000000000000000000000000000000000000000000000000000000002815260040180828152602001915050602060405180830381600087803b15801561117d57600080fd5b505af1158015611191573d6000803e3d6000fd5b505050506040513d60208110156111a757600080fd5b81019080805190602001909291905050509150600360009054906101000a900473ffffffffffffffffffffffffffffffffffffffff1673ffffffffffffffffffffffffffffffffffffffff16630ff4c916836040518263ffffffff167c010000000000000000000000000000000000000000000000000000000002815260040180828152602001915050602060405180830381600087803b15801561124b57600080fd5b505af115801561125f573d6000803e3d6000fd5b505050506040513d602081101561127557600080fd5b810190808051906020019092919050505090506000821415151561129857600080fd5b60006004600084815260200190815260200160002060000154141515156112be57600080fd5b6004600083815260200190815260200160002060040160009054906101000a900460ff1615156112ed57600080fd5b60046000838152602001908152602001600020600501543073ffffffffffffffffffffffffffffffffffffffff16311015151561132957600080fd5b6004600083815260200190815260200160002060060154811015151561134e57600080fd5b3373ffffffffffffffffffffffffffffffffffffffff166108fc60046000858152602001908152602001600020600501549081150290604051600060405180830381858888f193505050501580156113aa573d6000803e3d6000fd5b50600460008381526020019081526020016000206006015481039050600360009054906101000a900473ffffffffffffffffffffffffffffffffffffffff1673ffffffffffffffffffffffffffffffffffffffff16637b8d56e383836040518363ffffffff167c01000000000000000000000000000000000000000000000000000000000281526004018083815260200182815260200192505050600060405180830381600087803b15801561145f57600080fd5b505af1158015611473573d6000803e3d6000fd5b50505050600360009054906101000a900473ffffffffffffffffffffffffffffffffffffffff1673ffffffffffffffffffffffffffffffffffffffff1663b9d77bfc846103fe6040518363ffffffff167c01000000000000000000000000000000000000000000000000000000000281526004018083815260200182815260200192505050600060405180830381600087803b15801561151257600080fd5b505af1158015611526573d6000803e3d6000fd5b505050507fc5bedeba493b7131e43117718e40656b26c4142856982af267a6754c99717cf5828483600460008781526020019081526020016000206006015460046000888152602001908152602001600020600501546004600089815260200190815260200160002060000154600460008a8152602001908152602001600020600101546040518088815260200187815260200186815260200185815260200184815260200183815260200182815260200197505050505050505060405180910390a1505050565b6000809054906101000a900473ffffffffffffffffffffffffffffffffffffffff1681565b6000806000809054906101000a900473ffffffffffffffffffffffffffffffffffffffff1673ffffffffffffffffffffffffffffffffffffffff163373ffffffffffffffffffffffffffffffffffffffff1614151561166e57fe5b600073ffffffffffffffffffffffffffffffffffffffff168473ffffffffffffffffffffffffffffffffffffffff16141515156116aa57600080fd5b60006004600060055481526020019081526020016000206000015414156116d7576116d6600554612a54565b5b426004600060055481526020019081526020016000206001015411151561186e57600360009054906101000a900473ffffffffffffffffffffffffffffffffffffffff1673ffffffffffffffffffffffffffffffffffffffff16636b0d4f4d6040518163ffffffff167c0100000000000000000000000000000000000000000000000000000000028152600401602060405180830381600087803b15801561177e57600080fd5b505af1158015611792573d6000803e3d6000fd5b505050506040513d60208110156117a857600080fd5b810190808051906020019092919050505091506000821415156117da576117ce82612a54565b8160058190555061186d565b7f08c379a0afcc32b1a39302f7cb8073359698411ab5fd6e3edb2c02c0b5fba8aa6040518080602001828103825260368152602001807f73756220706f6f6c206973206e6f7420637265617465642c206e6f7420706f7381526020017f7369626c6520746f20616464206e657720746f6b656e0000000000000000000081525060400191505060405180910390a1611eef565b5b600360009054906101000a900473ffffffffffffffffffffffffffffffffffffffff1673ffffffffffffffffffffffffffffffffffffffff1663ea81d6206101f4866040518363ffffffff167c0100000000000000000000000000000000000000000000000000000000028152600401808381526020018273ffffffffffffffffffffffffffffffffffffffff1673ffffffffffffffffffffffffffffffffffffffff16815260200192505050602060405180830381600087803b15801561193557600080fd5b505af1158015611949573d6000803e3d6000fd5b505050506040513d602081101561195f57600080fd5b8101908080519060200190929190505050905060008114156119e8577f08c379a0afcc32b1a39302f7cb8073359698411ab5fd6e3edb2c02c0b5fba8aa6040518080602001828103825260168152602001807f63616e277420637265617465206e657720746f6b656e0000000000000000000081525060200191505060405180910390a1611eef565b600360009054906101000a900473ffffffffffffffffffffffffffffffffffffffff1673ffffffffffffffffffffffffffffffffffffffff16634908a55482856040518363ffffffff167c01000000000000000000000000000000000000000000000000000000000281526004018083815260200180602001828103825283818151815260200191508051906020019080838360005b83811015611a99578082015181840152602081019050611a7e565b50505050905090810190601f168015611ac65780820380516001836020036101000a031916815260200191505b509350505050600060405180830381600087803b158015611ae657600080fd5b505af1158015611afa573d6000803e3d6000fd5b50505050600360009054906101000a900473ffffffffffffffffffffffffffffffffffffffff1673ffffffffffffffffffffffffffffffffffffffff1663daa8d4f0826040518263ffffffff167c010000000000000000000000000000000000000000000000000000000002815260040180828152602001915050602060405180830381600087803b158015611b8f57600080fd5b505af1158015611ba3573d6000803e3d6000fd5b505050506040513d6020811015611bb957600080fd5b810190808051906020019092919050505050600360009054906101000a900473ffffffffffffffffffffffffffffffffffffffff1673ffffffffffffffffffffffffffffffffffffffff166334bda013826040518263ffffffff167c010000000000000000000000000000000000000000000000000000000002815260040180828152602001915050602060405180830381600087803b158015611c5c57600080fd5b505af1158015611c70573d6000803e3d6000fd5b505050506040513d6020811015611c8657600080fd5b8101908080519060200190929190505050915060055482141515611cd557600060046000848152602001908152602001600020600001541415611cd457611ccc82612a54565b816005819055505b5b7f25299e299adc87493e97635eab8eb1e476694ade7d680f3053d6464f013341b28484600084600554604051808673ffffffffffffffffffffffffffffffffffffffff1673ffffffffffffffffffffffffffffffffffffffff1681526020018060200185151515158152602001848152602001838152602001828103825286818151815260200191508051906020019080838360005b83811015611d86578082015181840152602081019050611d6b565b50505050905090810190601f168015611db35780820380516001836020036101000a031916815260200191505b50965050505050505060405180910390a160016004600060055481526020019081526020016000206002015401600460006005548152602001908152602001600020600201819055507f89943a733d2b4aa371b3b6655893b7a1a9ba9448f6bbdb328916724f710cfdb7600554826004600060055481526020019081526020016000206000015460046000600554815260200190815260200160002060010154600460006005548152602001908152602001600020600201546004600060055481526020019081526020016000206003015460046000600554815260200190815260200160002060040160009054906101000a900460ff16604051808881526020018781526020018681526020018581526020018481526020018381526020018215151515815260200197505050505050505060405180910390a15b50505050565b60055481565b60008060009054906101000a900473ffffffffffffffffffffffffffffffffffffffff1673ffffffffffffffffffffffffffffffffffffffff163373ffffffffffffffffffffffffffffffffffffffff16141515611f5557fe5b60008214151515611f6557600080fd5b600360009054906101000a900473ffffffffffffffffffffffffffffffffffffffff1673ffffffffffffffffffffffffffffffffffffffff1663b9d77bfc836103ff6040518363ffffffff167c01000000000000000000000000000000000000000000000000000000000281526004018083815260200182815260200192505050600060405180830381600087803b15801561200057600080fd5b505af1158015612014573d6000803e3d6000fd5b50505050600360009054906101000a900473ffffffffffffffffffffffffffffffffffffffff1673ffffffffffffffffffffffffffffffffffffffff166334bda013836040518263ffffffff167c010000000000000000000000000000000000000000000000000000000002815260040180828152602001915050602060405180830381600087803b1580156120a957600080fd5b505af11580156120bd573d6000803e3d6000fd5b505050506040513d60208110156120d357600080fd5b81019080805190602001909291905050509050600081141515156120f657600080fd5b600060046000838152602001908152602001600020600001541415151561211c57600080fd5b600160046000838152602001908152602001600020600301540160046000838152602001908152602001600020600301819055507f5786bd93f0241280de1677f23bec9bd531bfb927c6eac4cff33ccc9abc7700178183600460008581526020019081526020016000206000015460046000868152602001908152602001600020600101546040518085815260200184815260200183815260200182815260200194505050505060405180910390a15050565b60008060008060009250600360009054906101000a900473ffffffffffffffffffffffffffffffffffffffff1673ffffffffffffffffffffffffffffffffffffffff166334bda013866040518263ffffffff167c010000000000000000000000000000000000000000000000000000000002815260040180828152602001915050602060405180830381600087803b15801561226a57600080fd5b505af115801561227e573d6000803e3d6000fd5b505050506040513d602081101561229457600080fd5b81019080805190602001909291905050509150600360009054906101000a900473ffffffffffffffffffffffffffffffffffffffff1673ffffffffffffffffffffffffffffffffffffffff16630ff4c916836040518263ffffffff167c010000000000000000000000000000000000000000000000000000000002815260040180828152602001915050602060405180830381600087803b15801561233857600080fd5b505af115801561234c573d6000803e3d6000fd5b505050506040513d602081101561236257600080fd5b81019080805190602001909291905050509050600085141515612386576001830192505b600360009054906101000a900473ffffffffffffffffffffffffffffffffffffffff1673ffffffffffffffffffffffffffffffffffffffff1663cc933f9d33876040518363ffffffff167c0100000000000000000000000000000000000000000000000000000000028152600401808373ffffffffffffffffffffffffffffffffffffffff1673ffffffffffffffffffffffffffffffffffffffff16815260200182815260200192505050602060405180830381600087803b15801561244b57600080fd5b505af115801561245f573d6000803e3d6000fd5b505050506040513d602081101561247557600080fd5b81019080805190602001909291905050501561249257600a830192505b6103ff600360009054906101000a900473ffffffffffffffffffffffffffffffffffffffff1673ffffffffffffffffffffffffffffffffffffffff166344c9af28876040518263ffffffff167c010000000000000000000000000000000000000000000000000000000002815260040180828152602001915050602060405180830381600087803b15801561252657600080fd5b505af115801561253a573d6000803e3d6000fd5b505050506040513d602081101561255057600080fd5b8101908080519060200190929190505050141561256e576064830192505b600082141515612580576103e8830192505b600060046000848152602001908152602001600020600001541415156125a857612710830192505b6004600083815260200190815260200160002060040160009054906101000a900460ff16156125da57620186a0830192505b60046000838152602001908152602001600020600501543073ffffffffffffffffffffffffffffffffffffffff163110151561261957620f4240830192505b6004600083815260200190815260200160002060060154811015156126415762989680830192505b829350505050919050565b6000809054906101000a900473ffffffffffffffffffffffffffffffffffffffff1673ffffffffffffffffffffffffffffffffffffffff163373ffffffffffffffffffffffffffffffffffffffff161415156126a457fe5b30600260008373ffffffffffffffffffffffffffffffffffffffff1673ffffffffffffffffffffffffffffffffffffffff16815260200190815260200160002060006101000a81548173ffffffffffffffffffffffffffffffffffffffff021916908373ffffffffffffffffffffffffffffffffffffffff1602179055507f25245aeb6dcc1afb9053581af7e6b984f2191e80b27c263b11c45d821a566a538130604051808373ffffffffffffffffffffffffffffffffffffffff1673ffffffffffffffffffffffffffffffffffffffff1681526020018273ffffffffffffffffffffffffffffffffffffffff1673ffffffffffffffffffffffffffffffffffffffff1681526020019250505060405180910390a150565b600160009054906101000a900473ffffffffffffffffffffffffffffffffffffffff1681565b60008060008060008060006004600089815260200190815260200160002060000154600460008a815260200190815260200160002060010154600460008b815260200190815260200160002060020154600460008c815260200190815260200160002060030154600460008d815260200190815260200160002060060154600460008e815260200190815260200160002060050154600360009054906101000a900473ffffffffffffffffffffffffffffffffffffffff1673ffffffffffffffffffffffffffffffffffffffff16630ff4c9168f6040518263ffffffff167c010000000000000000000000000000000000000000000000000000000002815260040180828152602001915050602060405180830381600087803b15801561290857600080fd5b505af115801561291c573d6000803e3d6000fd5b505050506040513d602081101561293257600080fd5b81019080805190602001909291905050509650965096509650965096509650919395979092949650565b6000809054906101000a900473ffffffffffffffffffffffffffffffffffffffff1673ffffffffffffffffffffffffffffffffffffffff163373ffffffffffffffffffffffffffffffffffffffff161415156129b457fe5b6000809054906101000a900473ffffffffffffffffffffffffffffffffffffffff1673ffffffffffffffffffffffffffffffffffffffff168173ffffffffffffffffffffffffffffffffffffffff1614151515612a1057600080fd5b80600160006101000a81548173ffffffffffffffffffffffffffffffffffffffff021916908373ffffffffffffffffffffffffffffffffffffffff16021790555050565b60e06040519081016040528042815260200162015180420181526020016000815260200160008152602001600015158152602001600081526020016000815250600460008381526020019081526020016000206000820151816000015560208201518160010155604082015181600201556060820151816003015560808201518160040160006101000a81548160ff02191690831515021790555060a0820151816005015560c082015181600601559050507fd9e195d9caaadd0c4217368160d0bfeb60389f0df2be0154e480baff688bcdaf816004600084815260200190815260200160002060000154600460008581526020019081526020016000206001015460405180848152602001838152602001828152602001935050505060405180910390a1505600a165627a7a723058205d1bc3d6fe081845b73e71edbc2ab84e6a000cbb80d894bea313b2a0d9ba92ea0029",
  "source": "// \n// MIT License\n// \n// Copyright (c) 2018 REGA Risk Sharing\n//   \n// Permission is hereby granted, free of charge, to any person obtaining a copy\n// of this software and associated documentation files (the \"Software\"), to deal\n// in the Software without restriction, including without limitation the rights\n// to use, copy, modify, merge, publish, distribute, sublicense, and/or sell\n// copies of the Software, and to permit persons to whom the Software is\n// furnished to do so, subject to the following conditions:\n// \n// The above copyright notice and this permission notice shall be included in all\n// copies or substantial portions of the Software.\n// \n// THE SOFTWARE IS PROVIDED \"AS IS\", WITHOUT WARRANTY OF ANY KIND, EXPRESS OR\n// IMPLIED, INCLUDING BUT NOT LIMITED TO THE WARRANTIES OF MERCHANTABILITY,\n// FITNESS FOR A PARTICULAR PURPOSE AND NONINFRINGEMENT. IN NO EVENT SHALL THE\n// AUTHORS OR COPYRIGHT HOLDERS BE LIABLE FOR ANY CLAIM, DAMAGES OR OTHER\n// LIABILITY, WHETHER IN AN ACTION OF CONTRACT, TORT OR OTHERWISE, ARISING FROM,\n// OUT OF OR IN CONNECTION WITH THE SOFTWARE OR THE USE OR OTHER DEALINGS IN THE\n// SOFTWARE.\n// \n// Author: Sergei Sevriugin\n// Version: 0.0.1\n//  \n\npragma solidity ^0.4.17;\n\nimport \"./interfaces/ITokenPool.sol\";\nimport \"./Owned.sol\";\n/// TokenLoyalty is ERC721SmartToken for loyalty token.\ncontract TokenLoyalty is Owned {\n\n    uint256 constant StateClaim = uint256(1023);\n    uint256 constant StatePaid = uint256(1022);\n\n    struct SubPoolExtension {\n        uint    timeStamp;                          // Sub pool extension is created\n        uint    closure;                            // Sub pool closere time\n        uint    members;                            // Sub pool number of members\n        uint    activated;                          // Sub pool number of activated tokens\n        bool    funded;                             // Sub pool has recieved funds to pay claims\n        uint    payment;                            // If funded is true then this is payment amount for activated token\n        uint    debit;                              // This amount will be debited from Sub Pool value during the payment\n    }\n    ITokenPool public pool;\n    mapping (uint256 => SubPoolExtension) spextensions;     // Sup pools extension mapping \n    uint public subPoolId;                          // Current subpool NFT ID\n\n    /// loyalty token created event\n    event Created(address member, string clientId, bool claim, uint256 tokenId, uint256 supPoolId);\n    /// create sub pool extension event\n    event SPExtension(uint256 subPoolId, uint timeStamp, uint closure);\n    /// error event\n    event Error(string message);\n    /// sub pool added event \n    event Added(uint subPoolId, uint tokenId, uint timeStamp, uint closure, uint members, uint activated, bool funded);\n    /// activation event\n    event Activated(uint subPoolId, uint tokenId, uint timeStamp, uint closure);\n    /// funded event\n    event Funded(uint subPoolId, uint payment, uint debit, uint timeStamp, uint closure);\n    /// Closed event\n    event Closed(uint subPoolId, uint timeStamp, uint closure);\n    /// payment event\n    event Paid(uint subPoolId, uint tokenId, uint value, uint debit, uint payment, uint timeStamp, uint closure);\n\n    function _createExtension(uint _subPoolId) internal {\n        spextensions[_subPoolId] = SubPoolExtension ({\n            timeStamp: now,\n            closure: now + 1 days,\n            members: uint(0),\n            activated: uint(0),\n            funded: false,\n            payment: uint(0),\n            debit: uint(0)\n        });\n        // emit event\n        emit SPExtension(_subPoolId, spextensions[_subPoolId].timeStamp, spextensions[_subPoolId].closure);\n    }\n    /// create loyalty token\n    function create(address _member, string _clientId) ownerOnly public {\n        require(_member != address(0));\n        if(spextensions[subPoolId].timeStamp == uint(0)) {\n            // first sub pool and first token need to create sub pool extension\n            _createExtension(subPoolId);\n        }\n        // it looks like we have subPool with extension and we need to check if sub pool is still open\n        if(spextensions[subPoolId].closure <= now) {\n            // sub pool is closed need to create new one\n            uint newSubPoolId = pool.insertSubPool();\n            if(newSubPoolId != uint(0)) {\n                // new sub pool is created add extension\n                _createExtension(newSubPoolId);\n                // change current sub pool\n                subPoolId = newSubPoolId;\n            }\n            else {\n                emit Error(\"sub pool is not created, not possible to add new token\");\n                return;\n            }\n        }\n        // now we have sub pool open (old one or new) and can insert token\n        uint tokenId = pool.connector_createNFT(uint256(500), _member);\n        if(tokenId == uint(0)) {\n            emit Error(\"can't create new token\");\n            return;\n        }\n        // token is created\n        // set metadata to _clientId\n        pool.connector_setMetadata(tokenId, _clientId);\n        // now we can insert it to sub pool\n        pool.connector_addTokenToSubPool(tokenId);\n        // it's possible that sub pool can full and new sub pool will be created need to check this \n        newSubPoolId = pool.getSubPool(tokenId);\n        if(newSubPoolId != subPoolId) {\n            if(spextensions[newSubPoolId].timeStamp == uint(0)) {\n                _createExtension(newSubPoolId);\n                // change current sub pool\n                subPoolId = newSubPoolId;\n            }\n        }\n        emit Created(_member, _clientId, false, tokenId, subPoolId);\n        spextensions[subPoolId].members = spextensions[subPoolId].members + 1;\n        emit Added(\n            subPoolId,\n            tokenId, \n            spextensions[subPoolId].timeStamp, \n            spextensions[subPoolId].closure, \n            spextensions[subPoolId].members, \n            spextensions[subPoolId].activated, \n            spextensions[subPoolId].funded\n        );\n    }\n    function activate(uint256 _id) ownerOnly public {\n        require(_id != uint256(0));\n        pool.setState(_id, StateClaim);\n        uint _subPoolId = pool.getSubPool(_id);\n        require(_subPoolId != uint256(0));\n        require(spextensions[_subPoolId].timeStamp != uint256(0));\n        spextensions[_subPoolId].activated = spextensions[_subPoolId].activated + 1;\n\n        emit Activated(_subPoolId, _id, spextensions[_subPoolId].timeStamp, spextensions[_subPoolId].closure);\n    }\n    function fund(uint _subPoolId, uint _payment, uint _debit) ownerOnly public payable {\n        require(_subPoolId != uint256(0));\n        uint256 amount = msg.value;\n        uint256 value = pool.getValue(_subPoolId);\n        require(amount >= spextensions[_subPoolId].activated * _payment);\n        require(value >= spextensions[_subPoolId].activated * _debit);\n        spextensions[_subPoolId].funded = true;\n        spextensions[_subPoolId].payment = _payment;\n        spextensions[_subPoolId].debit = _debit;\n\n        if(spextensions[_subPoolId].closure >= now) {\n            spextensions[_subPoolId].closure = now;\n        }\n\n        emit Funded(_subPoolId, _payment, _debit, spextensions[_subPoolId].timeStamp, spextensions[_subPoolId].closure);\n    }\n    function close(uint _subPoolId) ownerOnly public {\n        require(_subPoolId != uint256(0));\n\n        if(spextensions[_subPoolId].closure >= now) {\n            spextensions[_subPoolId].closure = now;\n        }\n\n        emit Closed(_subPoolId, spextensions[_subPoolId].timeStamp, spextensions[_subPoolId].closure);\n    }\n    function payment(uint256 _id) public {\n        require(_id != uint256(0));\n        require(pool.connector_owns(msg.sender, _id));\n        require(pool.getState(_id) == StateClaim);\n        uint _subPoolId = pool.getSubPool(_id);\n        uint value = pool.getValue(_subPoolId);\n        require(_subPoolId != uint256(0));\n        require(spextensions[_subPoolId].timeStamp != uint256(0));\n        require(spextensions[_subPoolId].funded);\n        require(address(this).balance >= spextensions[_subPoolId].payment);\n        require(value >= spextensions[_subPoolId].debit);\n        msg.sender.transfer(spextensions[_subPoolId].payment);\n        value = value - spextensions[_subPoolId].debit;\n        pool.setValue(_subPoolId, value);\n        pool.setState(_id, StatePaid);\n\n        emit Paid(\n            _subPoolId,\n            _id,\n            value,\n            spextensions[_subPoolId].debit,\n            spextensions[_subPoolId].payment, \n            spextensions[_subPoolId].timeStamp, \n            spextensions[_subPoolId].closure\n        );\n    }\n    function getSubPoolExtension(uint256 _subPoolId) public view returns(uint, uint, uint, uint, uint, uint, uint) {\n        return(\n            spextensions[_subPoolId].timeStamp, \n            spextensions[_subPoolId].closure, \n            spextensions[_subPoolId].members, \n            spextensions[_subPoolId].activated, \n            spextensions[_subPoolId].debit, \n            spextensions[_subPoolId].payment,\n            pool.getValue(_subPoolId)\n        );\n    }\n    function getCurrentSubPoolExtension() public view returns(\n        uint created, \n        uint closed, \n        uint numberOfMembers, \n        uint numberOfActivated, \n        uint debitValue,\n        uint paymentAmount,\n        uint value\n    ) {\n        return getSubPoolExtension(subPoolId);\n    }\n    function getBizProcessId() view public returns(address contractOwner, uint8 bizProcessId) {\n        contractOwner = owner;\n        bizProcessId = 21;\n        // wait fot init\n        if (pool.getPoolSize() == 0) {\n            bizProcessId = 100; \n            return;\n        }\n    }\n    function getBalance() view public returns(uint) {\n        return address(this).balance;\n    }\n    function checkPayment(uint _id) public view returns(uint) {\n        uint result = 0;\n        uint _subPoolId = pool.getSubPool(_id);\n        uint value = pool.getValue(_subPoolId);\n\n        if(_id != uint256(0)) {\n            result = result + 1;\n        }\n        if(pool.connector_owns(msg.sender, _id)) {\n            result = result + 10;\n        }\n        if(pool.getState(_id) == StateClaim) {\n            result = result + 100;\n        }\n        if(_subPoolId != uint256(0)) {\n            result = result + 1000;\n        }\n        if(spextensions[_subPoolId].timeStamp != uint256(0)) {\n            result = result + 10000;\n        }\n        if(spextensions[_subPoolId].funded) {\n            result = result + 100000;\n        }\n        if(address(this).balance >= spextensions[_subPoolId].payment) {\n            result = result + 1000000;\n        }\n        if(value >= spextensions[_subPoolId].debit) {\n            result = result + 10000000;\n        }\n        return result;\n    }\n    constructor(address _pool) public {\n        subPoolId = 3;\n        _createExtension(subPoolId);\n        pool = ITokenPool(_pool);\n    }\n    function() public payable { }                           //  fallback function to get Ether on contract account\n}",
  "sourcePath": "/Users/sergei/LoyaltyCrowdsurance/contracts/TokenLoyalty.sol",
  "compiler": {
    "name": "solc",
    "version": "0.4.24+commit.e67f0147.Emscripten.clang"
  },
  "schemaVersion": "2.0.1",
  "updatedAt": "2018-08-15T17:33:03.905Z"
}